{
  "address": "0x2D2f186BB2579A6A7995e7ABFd13daf1d12196ED",
  "abi": [
    {
      "inputs": [],
      "stateMutability": "nonpayable",
      "type": "constructor"
    },
    {
      "inputs": [],
      "name": "AlreadyInitialized",
      "type": "error"
    },
    {
      "inputs": [],
      "name": "InvalidInput",
      "type": "error"
    },
    {
      "inputs": [],
      "name": "NotAuthorized",
      "type": "error"
    },
    {
      "inputs": [],
      "name": "OwnershipCycle",
      "type": "error"
    },
    {
      "anonymous": false,
      "inputs": [
        {
          "indexed": false,
          "internalType": "address",
          "name": "owner",
          "type": "address"
        },
        {
          "indexed": false,
          "internalType": "address",
          "name": "controller",
          "type": "address"
        }
      ],
      "name": "ExecutionControllerUpdated",
      "type": "event"
    },
    {
      "anonymous": false,
      "inputs": [
        {
          "indexed": false,
          "internalType": "address",
          "name": "owner",
          "type": "address"
        },
        {
          "indexed": false,
          "internalType": "address",
          "name": "caller",
          "type": "address"
        },
        {
          "indexed": false,
          "internalType": "bool",
          "name": "hasPermission",
          "type": "bool"
        }
      ],
      "name": "PermissionUpdated",
      "type": "event"
    },
    {
      "inputs": [
        {
          "internalType": "address",
          "name": "to",
          "type": "address"
        },
        {
          "internalType": "uint256",
          "name": "value",
          "type": "uint256"
        },
        {
          "internalType": "bytes",
          "name": "data",
          "type": "bytes"
        },
        {
          "internalType": "uint8",
          "name": "operation",
          "type": "uint8"
        }
      ],
      "name": "execute",
      "outputs": [
        {
          "internalType": "bytes",
          "name": "",
          "type": "bytes"
        }
      ],
      "stateMutability": "payable",
      "type": "function"
    },
    {
      "inputs": [],
      "name": "getChargedParticles",
      "outputs": [
        {
          "internalType": "address",
          "name": "",
          "type": "address"
        }
      ],
      "stateMutability": "view",
      "type": "function"
    },
    {
      "inputs": [
        {
          "internalType": "address",
          "name": "nftContractAddress",
          "type": "address"
        },
        {
          "internalType": "uint256",
          "name": "nftTokenId",
          "type": "uint256"
        }
      ],
      "name": "getCovalentBonds",
      "outputs": [
        {
          "internalType": "uint256",
          "name": "total",
          "type": "uint256"
        }
      ],
      "stateMutability": "view",
      "type": "function"
    },
    {
      "inputs": [],
      "name": "getExecutionController",
      "outputs": [
        {
          "internalType": "address",
          "name": "",
          "type": "address"
        }
      ],
      "stateMutability": "view",
      "type": "function"
    },
    {
      "inputs": [
        {
          "internalType": "address",
          "name": "",
          "type": "address"
        }
      ],
      "name": "getInterest",
      "outputs": [
        {
          "internalType": "uint256",
          "name": "total",
          "type": "uint256"
        }
      ],
      "stateMutability": "view",
      "type": "function"
    },
    {
      "inputs": [
        {
          "internalType": "address",
          "name": "assetToken",
          "type": "address"
        }
      ],
      "name": "getPrincipal",
      "outputs": [
        {
          "internalType": "uint256",
          "name": "total",
          "type": "uint256"
        }
      ],
      "stateMutability": "view",
      "type": "function"
    },
    {
      "inputs": [
        {
          "internalType": "address",
          "name": "",
          "type": "address"
        }
      ],
      "name": "getRewards",
      "outputs": [
        {
          "internalType": "uint256",
          "name": "total",
          "type": "uint256"
        }
      ],
      "stateMutability": "view",
      "type": "function"
    },
    {
      "inputs": [
        {
          "internalType": "bool",
          "name": "isReceiving",
          "type": "bool"
        },
        {
          "internalType": "address",
          "name": "tokenContract",
          "type": "address"
        },
        {
          "internalType": "uint256[]",
          "name": "tokenIds",
          "type": "uint256[]"
        },
        {
          "internalType": "uint256[]",
          "name": "tokenAmounts",
          "type": "uint256[]"
        }
      ],
      "name": "handleNFTBatchUpdate",
      "outputs": [],
      "stateMutability": "nonpayable",
      "type": "function"
    },
    {
      "inputs": [
        {
          "internalType": "bool",
          "name": "isReceiving",
          "type": "bool"
        },
        {
          "internalType": "address",
          "name": "tokenContract",
          "type": "address"
        },
        {
          "internalType": "uint256",
          "name": "tokenId",
          "type": "uint256"
        },
        {
          "internalType": "uint256",
          "name": "tokenAmount",
          "type": "uint256"
        }
      ],
      "name": "handleNFTUpdate",
      "outputs": [],
      "stateMutability": "nonpayable",
      "type": "function"
    },
    {
      "inputs": [
        {
          "internalType": "bool",
          "name": "isReceiving",
          "type": "bool"
        },
        {
          "internalType": "address",
          "name": "assetToken",
          "type": "address"
        },
        {
          "internalType": "uint256",
          "name": "assetAmount",
          "type": "uint256"
        }
      ],
      "name": "handleTokenUpdate",
      "outputs": [],
      "stateMutability": "nonpayable",
      "type": "function"
    },
    {
      "inputs": [
        {
          "internalType": "address",
          "name": "chargedParticles",
          "type": "address"
        },
        {
          "internalType": "address",
          "name": "executionController",
          "type": "address"
        }
      ],
      "name": "initialize",
      "outputs": [],
      "stateMutability": "nonpayable",
      "type": "function"
    },
    {
      "inputs": [],
      "name": "isInitialized",
      "outputs": [
        {
          "internalType": "bool",
          "name": "",
          "type": "bool"
        }
      ],
      "stateMutability": "view",
      "type": "function"
    },
    {
      "inputs": [
        {
          "internalType": "address",
          "name": "signer",
          "type": "address"
        },
        {
          "internalType": "bytes",
          "name": "",
          "type": "bytes"
        }
      ],
      "name": "isValidSigner",
      "outputs": [
        {
          "internalType": "bytes4",
          "name": "",
          "type": "bytes4"
        }
      ],
      "stateMutability": "view",
      "type": "function"
    },
    {
      "inputs": [
        {
          "internalType": "address",
          "name": "",
          "type": "address"
        },
        {
          "internalType": "address",
          "name": "",
          "type": "address"
        },
        {
          "internalType": "uint256[]",
          "name": "",
          "type": "uint256[]"
        },
        {
          "internalType": "uint256[]",
          "name": "",
          "type": "uint256[]"
        },
        {
          "internalType": "bytes",
          "name": "",
          "type": "bytes"
        }
      ],
      "name": "onERC1155BatchReceived",
      "outputs": [
        {
          "internalType": "bytes4",
          "name": "",
          "type": "bytes4"
        }
      ],
      "stateMutability": "pure",
      "type": "function"
    },
    {
      "inputs": [
        {
          "internalType": "address",
          "name": "",
          "type": "address"
        },
        {
          "internalType": "address",
          "name": "",
          "type": "address"
        },
        {
          "internalType": "uint256",
          "name": "",
          "type": "uint256"
        },
        {
          "internalType": "uint256",
          "name": "",
          "type": "uint256"
        },
        {
          "internalType": "bytes",
          "name": "",
          "type": "bytes"
        }
      ],
      "name": "onERC1155Received",
      "outputs": [
        {
          "internalType": "bytes4",
          "name": "",
          "type": "bytes4"
        }
      ],
      "stateMutability": "pure",
      "type": "function"
    },
    {
      "inputs": [
        {
          "internalType": "address",
          "name": "",
          "type": "address"
        },
        {
          "internalType": "address",
          "name": "",
          "type": "address"
        },
        {
          "internalType": "uint256",
          "name": "receivedTokenId",
          "type": "uint256"
        },
        {
          "internalType": "bytes",
          "name": "",
          "type": "bytes"
        }
      ],
      "name": "onERC721Received",
      "outputs": [
        {
          "internalType": "bytes4",
          "name": "",
          "type": "bytes4"
        }
      ],
      "stateMutability": "view",
      "type": "function"
    },
    {
      "inputs": [],
      "name": "owner",
      "outputs": [
        {
          "internalType": "address",
          "name": "",
          "type": "address"
        }
      ],
      "stateMutability": "view",
      "type": "function"
    },
    {
      "inputs": [
        {
          "internalType": "address",
          "name": "_owner",
          "type": "address"
        },
        {
          "internalType": "address",
          "name": "caller",
          "type": "address"
        }
      ],
      "name": "permissions",
      "outputs": [
        {
          "internalType": "bool",
          "name": "",
          "type": "bool"
        }
      ],
      "stateMutability": "view",
      "type": "function"
    },
    {
      "inputs": [
        {
          "internalType": "address",
          "name": "chargedParticles",
          "type": "address"
        }
      ],
      "name": "setChargedParticles",
      "outputs": [],
      "stateMutability": "nonpayable",
      "type": "function"
    },
    {
      "inputs": [
        {
          "internalType": "address",
          "name": "executionController",
          "type": "address"
        }
      ],
      "name": "setExecutionController",
      "outputs": [],
      "stateMutability": "nonpayable",
      "type": "function"
    },
    {
      "inputs": [
        {
          "internalType": "address[]",
          "name": "callers",
          "type": "address[]"
        },
        {
          "internalType": "bool[]",
          "name": "newPermissions",
          "type": "bool[]"
        }
      ],
      "name": "setPermissions",
      "outputs": [],
      "stateMutability": "nonpayable",
      "type": "function"
    },
    {
      "inputs": [],
      "name": "state",
      "outputs": [
        {
          "internalType": "uint256",
          "name": "",
          "type": "uint256"
        }
      ],
      "stateMutability": "view",
      "type": "function"
    },
    {
      "inputs": [
        {
          "internalType": "bytes4",
          "name": "interfaceId",
          "type": "bytes4"
        }
      ],
      "name": "supportsInterface",
      "outputs": [
        {
          "internalType": "bool",
          "name": "",
          "type": "bool"
        }
      ],
      "stateMutability": "view",
      "type": "function"
    },
    {
      "inputs": [],
      "name": "token",
      "outputs": [
        {
          "internalType": "uint256",
          "name": "",
          "type": "uint256"
        },
        {
          "internalType": "address",
          "name": "",
          "type": "address"
        },
        {
          "internalType": "uint256",
          "name": "",
          "type": "uint256"
        }
      ],
      "stateMutability": "view",
      "type": "function"
    },
    {
      "stateMutability": "payable",
      "type": "receive"
    }
  ],
  "transactionHash": "0xfd28bc21ae98737cac773fee7a34ffeb36a6abe4efd8df11bf57cee20f61eb4d",
  "args": [],
  "numDeployments": 1,
  "solcInputHash": "bea157668a848c283a80316c80ff022e",
  "bytecode": "0x608060405234801561001057600080fd5b50611c3e806100206000396000f3fe60806040526004361061014f5760003560e01c80637aaa3470116100b6578063ac087a6d1161006f578063ac087a6d146103d4578063ae4d1753146103f4578063bc197c8114610414578063c19d93fb14610440578063f23a6e6114610456578063fc0c546a1461048257600080fd5b80637aaa3470146103205780637abdd2d1146103415780637d167664146103615780638da5cb5b146103815780638f0e24b6146103965780639bf32a35146103b657600080fd5b8063392e53cd11610108578063392e53cd14610288578063485cc955146102a057806351945447146102c0578063523e3260146102e05780636e5559fd1461030057806379ee54f71461032057600080fd5b806301ffc9a71461015b578063039721b114610190578063150b7a02146101b257806317dd2c92146101df5780631c1801fa146102115780631f9838b51461023f57600080fd5b3661015657005b600080fd5b34801561016757600080fd5b5061017b6101763660046112c4565b6104ba565b60405190151581526020015b60405180910390f35b34801561019c57600080fd5b506101b06101ab366004611339565b610527565b005b3480156101be57600080fd5b506101d26101cd36600461147f565b6106cd565b60405161018791906114ea565b3480156101eb57600080fd5b506000546001600160a01b03165b6040516001600160a01b039091168152602001610187565b34801561021d57600080fd5b5061023161022c3660046114ff565b610735565b604051908152602001610187565b34801561024b57600080fd5b5061017b61025a36600461152b565b6001600160a01b03918216600090815260026020908152604080832093909416825291909152205460ff1690565b34801561029457600080fd5b5060035460ff1661017b565b3480156102ac57600080fd5b506101b06102bb36600461152b565b610831565b6102d36102ce3660046115a5565b610890565b604051610187919061166e565b3480156102ec57600080fd5b506101d26102fb366004611681565b61094f565b34801561030c57600080fd5b506101b061031b3660046116d5565b610977565b34801561032c57600080fd5b5061023161033b3660046116d5565b50600090565b34801561034d57600080fd5b5061023161035c3660046116d5565b6109f9565b34801561036d57600080fd5b506101b061037c366004611700565b610a64565b34801561038d57600080fd5b506101f9610a9a565b3480156103a257600080fd5b506101b06103b1366004611741565b610b36565b3480156103c257600080fd5b506001546001600160a01b03166101f9565b3480156103e057600080fd5b506101b06103ef366004611787565b610b6e565b34801561040057600080fd5b506101b061040f3660046116d5565b610baa565b34801561042057600080fd5b506101d261042f36600461189a565b63bc197c8160e01b95945050505050565b34801561044c57600080fd5b5061023160045481565b34801561046257600080fd5b506101d2610471366004611947565b63f23a6e6160e01b95945050505050565b34801561048e57600080fd5b50610497610c3e565b604080519384526001600160a01b03909216602084015290820152606001610187565b60006001600160e01b03198216636faff5f160e01b14806104eb57506001600160e01b03198216635194544760e01b145b8061050657506001600160e01b03198216634a83018b60e01b145b8061052157506301ffc9a760e01b6001600160e01b03198316145b92915050565b6000610531610a9a565b9050336001600160a01b0382161461055c5760405163ea8e4eb560e01b815260040160405180910390fd5b8382811461057d5760405163b4fa3fb360e01b815260040160405180910390fd5b60005b818110156106c45784848281811061059a5761059a6119af565b90506020020160208101906105af91906119c5565b6001600160a01b0384166000908152600260205260408120908989858181106105da576105da6119af565b90506020020160208101906105ef91906116d5565b6001600160a01b031681526020810191909152604001600020805460ff19169115159190911790557f394777a58092892d136a90c4bb7e4350c72ac50fba6a0208128677f36527dcf58388888481811061064b5761064b6119af565b905060200201602081019061066091906116d5565b878785818110610672576106726119af565b905060200201602081019061068791906119c5565b604080516001600160a01b03948516815293909216602084015215159082015260600160405180910390a1806106bc816119e2565b915050610580565b50505050505050565b6000806000806106db610c3e565b92509250925046831480156106f857506001600160a01b03821633145b801561070357508581145b156107215760405163b79e3f3f60e01b815260040160405180910390fd5b50630a85bd0160e11b979650505050505050565b6000610749836001600160a01b0316610c56565b156107c257604051627eeac760e11b8152306004820152602481018390526001600160a01b0384169062fdd58e90604401602060405180830381865afa158015610797573d6000803e3d6000fd5b505050506040513d601f19601f820116820180604052508101906107bb9190611a09565b9050610521565b6040516370a0823160e01b81523060048201526001600160a01b038416906370a0823190602401602060405180830381865afa158015610806573d6000803e3d6000fd5b505050506040513d601f19601f8201168201806040525081019061082a9190611a09565b9392505050565b60035460ff16156108545760405162dc149f60e41b815260040160405180910390fd5b60038054600160ff199091168117909155600080546001600160a01b03199081166001600160a01b039586161790915581541691909216179055565b606061089b33610ccd565b6108b85760405163ea8e4eb560e01b815260040160405180910390fd5b60ff8216156109195760405162461bcd60e51b815260206004820152602260248201527f4f6e6c792063616c6c206f7065726174696f6e732061726520737570706f7274604482015261195960f21b60648201526084015b60405180910390fd5b600460008154610928906119e2565b909155506109398686868686610d6d565b61094586868686610e95565b9695505050505050565b600061095a84610ccd565b1561096d5750630291f19360e51b61082a565b5060009392505050565b61097f610a9a565b6001600160a01b0316336001600160a01b0316146109b05760405163ea8e4eb560e01b815260040160405180910390fd5b6001600160a01b0381166109d75760405163b4fa3fb360e01b815260040160405180910390fd5b600080546001600160a01b0319166001600160a01b0392909216919091179055565b6040516370a0823160e01b81523060048201526000906001600160a01b038316906370a0823190602401602060405180830381865afa158015610a40573d6000803e3d6000fd5b505050506040513d601f19601f820116820180604052508101906105219190611a09565b610a6d33610ccd565b610a8a5760405163ea8e4eb560e01b815260040160405180910390fd5b610a95838383610f11565b505050565b600080600080610aa8610c3e565b925092509250468314610abf576000935050505090565b6040516331a9108f60e11b8152600481018290526001600160a01b03831690636352211e90602401602060405180830381865afa925050508015610b20575060408051601f3d908101601f19168201909252610b1d91810190611a22565b60015b610b2e576000935050505090565b949350505050565b610b3f33610ccd565b610b5c5760405163ea8e4eb560e01b815260040160405180910390fd5b610b6884848484611031565b50505050565b610b7733610ccd565b610b945760405163ea8e4eb560e01b815260040160405180910390fd5b610ba2868686868686611157565b505050505050565b610bb2610a9a565b6001600160a01b0316336001600160a01b031614610be35760405163ea8e4eb560e01b815260040160405180910390fd5b600180546001600160a01b0319166001600160a01b0383169081179091556040805133815260208101929092527f8e49c81dbf3f64ca1e8afe0b105d6e6a159505016a63bf20d3e3f4324e7597c7910160405180910390a150565b6000806000610c4b611264565b925092509250909192565b6040516301ffc9a760e01b81526000906001600160a01b038316906301ffc9a790610c8c90636cdb3d1360e11b906004016114ea565b602060405180830381865afa158015610ca9573d6000803e3d6000fd5b505050506040513d601f19601f820116820180604052508101906105219190611a3f565b600080610cd8610a9a565b6000549091506001600160a01b0390811690841603610cfa5750600192915050565b6001546001600160a01b0390811690841603610d195750600192915050565b6001600160a01b0380821660009081526002602090815260408083209387168352929052205460ff1615610d505750600192915050565b806001600160a01b0316836001600160a01b031614915050919050565b6001546040516301ffc9a760e01b81526001600160a01b03909116906301ffc9a790610da490630736863160e31b906004016114ea565b602060405180830381865afa158015610dc1573d6000803e3d6000fd5b505050506040513d601f19601f82011682018060405250810190610de59190611a3f565b15610e8e57600154604051631269c0cd60e21b81526000916001600160a01b0316906349a7033490610e239089908990899089908990600401611a5c565b6000604051808303816000875af1158015610e42573d6000803e3d6000fd5b505050506040513d6000823e601f3d908101601f19168201604052610e6a9190810190611ab1565b805190915015610ba2578060405162461bcd60e51b8152600401610910919061166e565b5050505050565b60606000856001600160a01b0316858585604051610eb4929190611b27565b60006040518083038185875af1925050503d8060008114610ef1576040519150601f19603f3d011682016040523d82523d6000602084013e610ef6565b606091505b509250905080610f0857815160208301fd5b50949350505050565b6001546040516301ffc9a760e01b81526001600160a01b03909116906301ffc9a790610f4890630736863160e31b906004016114ea565b602060405180830381865afa158015610f65573d6000803e3d6000fd5b505050506040513d601f19601f82011682018060405250810190610f899190611a3f565b15610a95576000806000610f9b610c3e565b6001546040516380ced4bf60e01b81528a15156004820152602481018590526001600160a01b038085166044830152606482018490528a8116608483015260a482018a905294975092955090935091909116906380ced4bf9060c401600060405180830381600087803b15801561101157600080fd5b505af1158015611025573d6000803e3d6000fd5b50505050505050505050565b6001546040516301ffc9a760e01b81526001600160a01b03909116906301ffc9a79061106890630736863160e31b906004016114ea565b602060405180830381865afa158015611085573d6000803e3d6000fd5b505050506040513d601f19601f820116820180604052508101906110a99190611a3f565b15610b685760008060006110bb610c3e565b60015460405162da771360e01b81528b15156004820152602481018590526001600160a01b038085166044830152606482018490528b8116608483015260a482018b905260c482018a9052949750929550909350919091169062da77139060e401600060405180830381600087803b15801561113657600080fd5b505af115801561114a573d6000803e3d6000fd5b5050505050505050505050565b6001546040516301ffc9a760e01b81526001600160a01b03909116906301ffc9a79061118e90630736863160e31b906004016114ea565b602060405180830381865afa1580156111ab573d6000803e3d6000fd5b505050506040513d601f19601f820116820180604052508101906111cf9190611a3f565b15610ba25760008060006111e1610c3e565b600154604051630f00791160e41b815293965091945092506001600160a01b03169063f007911090611227908c908790879087908f908f908f908f908f90600401611b69565b600060405180830381600087803b15801561124157600080fd5b505af1158015611255573d6000803e3d6000fd5b50505050505050505050505050565b6040805160608082526080820190925260009182918291610c4b91309184918291829182916020820181803683370190505090506060604d60208301873c808060200190518101906112b69190611bcf565b935093509350509193909250565b6000602082840312156112d657600080fd5b81356001600160e01b03198116811461082a57600080fd5b60008083601f84011261130057600080fd5b5081356001600160401b0381111561131757600080fd5b6020830191508360208260051b850101111561133257600080fd5b9250929050565b6000806000806040858703121561134f57600080fd5b84356001600160401b038082111561136657600080fd5b611372888389016112ee565b9096509450602087013591508082111561138b57600080fd5b50611398878288016112ee565b95989497509550505050565b6001600160a01b03811681146113b957600080fd5b50565b634e487b7160e01b600052604160045260246000fd5b604051601f8201601f191681016001600160401b03811182821017156113fa576113fa6113bc565b604052919050565b60006001600160401b0382111561141b5761141b6113bc565b50601f01601f191660200190565b600082601f83011261143a57600080fd5b813561144d61144882611402565b6113d2565b81815284602083860101111561146257600080fd5b816020850160208301376000918101602001919091529392505050565b6000806000806080858703121561149557600080fd5b84356114a0816113a4565b935060208501356114b0816113a4565b92506040850135915060608501356001600160401b038111156114d257600080fd5b6114de87828801611429565b91505092959194509250565b6001600160e01b031991909116815260200190565b6000806040838503121561151257600080fd5b823561151d816113a4565b946020939093013593505050565b6000806040838503121561153e57600080fd5b8235611549816113a4565b91506020830135611559816113a4565b809150509250929050565b60008083601f84011261157657600080fd5b5081356001600160401b0381111561158d57600080fd5b60208301915083602082850101111561133257600080fd5b6000806000806000608086880312156115bd57600080fd5b85356115c8816113a4565b94506020860135935060408601356001600160401b038111156115ea57600080fd5b6115f688828901611564565b909450925050606086013560ff8116811461161057600080fd5b809150509295509295909350565b60005b83811015611639578181015183820152602001611621565b50506000910152565b6000815180845261165a81602086016020860161161e565b601f01601f19169290920160200192915050565b60208152600061082a6020830184611642565b60008060006040848603121561169657600080fd5b83356116a1816113a4565b925060208401356001600160401b038111156116bc57600080fd5b6116c886828701611564565b9497909650939450505050565b6000602082840312156116e757600080fd5b813561082a816113a4565b80151581146113b957600080fd5b60008060006060848603121561171557600080fd5b8335611720816116f2565b92506020840135611730816113a4565b929592945050506040919091013590565b6000806000806080858703121561175757600080fd5b8435611762816116f2565b93506020850135611772816113a4565b93969395505050506040820135916060013590565b600080600080600080608087890312156117a057600080fd5b86356117ab816116f2565b955060208701356117bb816113a4565b945060408701356001600160401b03808211156117d757600080fd5b6117e38a838b016112ee565b909650945060608901359150808211156117fc57600080fd5b5061180989828a016112ee565b979a9699509497509295939492505050565b600082601f83011261182c57600080fd5b813560206001600160401b03821115611847576118476113bc565b8160051b6118568282016113d2565b928352848101820192828101908785111561187057600080fd5b83870192505b8483101561188f57823582529183019190830190611876565b979650505050505050565b600080600080600060a086880312156118b257600080fd5b85356118bd816113a4565b945060208601356118cd816113a4565b935060408601356001600160401b03808211156118e957600080fd5b6118f589838a0161181b565b9450606088013591508082111561190b57600080fd5b61191789838a0161181b565b9350608088013591508082111561192d57600080fd5b5061193a88828901611429565b9150509295509295909350565b600080600080600060a0868803121561195f57600080fd5b853561196a816113a4565b9450602086013561197a816113a4565b9350604086013592506060860135915060808601356001600160401b038111156119a357600080fd5b61193a88828901611429565b634e487b7160e01b600052603260045260246000fd5b6000602082840312156119d757600080fd5b813561082a816116f2565b600060018201611a0257634e487b7160e01b600052601160045260246000fd5b5060010190565b600060208284031215611a1b57600080fd5b5051919050565b600060208284031215611a3457600080fd5b815161082a816113a4565b600060208284031215611a5157600080fd5b815161082a816116f2565b6001600160a01b0386168152602081018590526080604082018190528101839052828460a0830137600060a08483010152600060a0601f19601f860116830101905060ff831660608301529695505050505050565b600060208284031215611ac357600080fd5b81516001600160401b03811115611ad957600080fd5b8201601f81018413611aea57600080fd5b8051611af861144882611402565b818152856020838501011115611b0d57600080fd5b611b1e82602083016020860161161e565b95945050505050565b8183823760009101908152919050565b81835260006001600160fb1b03831115611b5057600080fd5b8260051b80836020870137939093016020019392505050565b8915158152602081018990526001600160a01b038881166040830152606082018890528616608082015260e060a08201819052600090611bac9083018688611b37565b82810360c0840152611bbf818587611b37565b9c9b505050505050505050505050565b600080600060608486031215611be457600080fd5b835192506020840151611bf6816113a4565b8092505060408401519050925092509256fea2646970667358221220e02fb9559c80ec7c5dba647fc8947bef6e108da1df6b3b214be678998f3e064864736f6c63430008110033",
  "devdoc": {
    "kind": "dev",
    "methods": {
      "execute(address,uint256,bytes,uint8)": {
        "details": "executes a low-level call against an account if the caller is authorized to make calls"
      },
      "onERC1155BatchReceived(address,address,uint256[],uint256[],bytes)": {
        "details": "Allows ERC-1155 token batches to be received. This function can be overriden."
      },
      "onERC1155Received(address,address,uint256,uint256,bytes)": {
        "details": "Allows ERC-1155 tokens to be received. This function can be overriden."
      },
      "onERC721Received(address,address,uint256,bytes)": {
        "details": "Allows ERC-721 tokens to be received so long as they do not cause an ownership cycle. This function can be overriden."
      },
      "owner()": {
        "details": "Returns the owner of the ERC-721 token which owns this account. By default, the owner of the token has full permissions on the account."
      },
      "setPermissions(address[],bool[])": {
        "details": "grants a given caller execution permissions"
      },
      "supportsInterface(bytes4)": {
        "details": "Returns true if a given interfaceId is supported by this account. This method can be extended by an override."
      },
      "token()": {
        "details": "Returns the EIP-155 chain ID, token contract address, and token ID for the token that owns this account."
      }
    },
    "stateVariables": {
      "state": {
        "details": "Returns a value that SHOULD be modified each time the account changes state.",
        "return": "The current account state",
        "returns": {
          "_0": "The current account state"
        }
      }
    },
    "title": "A smart contract account owned by a single ERC721 token",
    "version": 1
  },
  "userdoc": {
    "kind": "user",
    "methods": {},
    "version": 1
  },
  "storageLayout": {
    "storage": [
      {
        "astId": 9047,
        "contract": "contracts/SmartAccount.sol:SmartAccount",
        "label": "_chargedParticles",
        "offset": 0,
        "slot": "0",
        "type": "t_address"
      },
      {
        "astId": 9049,
        "contract": "contracts/SmartAccount.sol:SmartAccount",
        "label": "_executionController",
        "offset": 0,
        "slot": "1",
        "type": "t_address"
      },
      {
        "astId": 9056,
        "contract": "contracts/SmartAccount.sol:SmartAccount",
        "label": "_permissions",
        "offset": 0,
        "slot": "2",
        "type": "t_mapping(t_address,t_mapping(t_address,t_bool))"
      },
      {
        "astId": 9058,
        "contract": "contracts/SmartAccount.sol:SmartAccount",
        "label": "_initialized",
        "offset": 0,
        "slot": "3",
        "type": "t_bool"
      },
      {
        "astId": 6178,
        "contract": "contracts/SmartAccount.sol:SmartAccount",
        "label": "state",
        "offset": 0,
        "slot": "4",
        "type": "t_uint256"
      }
    ],
    "types": {
      "t_address": {
        "encoding": "inplace",
        "label": "address",
        "numberOfBytes": "20"
      },
      "t_bool": {
        "encoding": "inplace",
        "label": "bool",
        "numberOfBytes": "1"
      },
      "t_mapping(t_address,t_bool)": {
        "encoding": "mapping",
        "key": "t_address",
        "label": "mapping(address => bool)",
        "numberOfBytes": "32",
        "value": "t_bool"
      },
      "t_mapping(t_address,t_mapping(t_address,t_bool))": {
        "encoding": "mapping",
        "key": "t_address",
        "label": "mapping(address => mapping(address => bool))",
        "numberOfBytes": "32",
        "value": "t_mapping(t_address,t_bool)"
      },
      "t_uint256": {
        "encoding": "inplace",
        "label": "uint256",
        "numberOfBytes": "32"
      }
    }
  }
}