{
  "address": "0xaFCD43838bA7032b5218a07E1344AbC5985E5B7F",
  "abi": [
    {
      "inputs": [
        {
          "internalType": "address",
          "name": "registry",
          "type": "address"
        },
        {
          "internalType": "address",
          "name": "implementation",
          "type": "address"
        }
      ],
      "stateMutability": "nonpayable",
      "type": "constructor"
    },
    {
      "anonymous": false,
      "inputs": [
        {
          "indexed": true,
          "internalType": "address",
          "name": "previousOwner",
          "type": "address"
        },
        {
          "indexed": true,
          "internalType": "address",
          "name": "newOwner",
          "type": "address"
        }
      ],
      "name": "OwnershipTransferred",
      "type": "event"
    },
    {
      "inputs": [
        {
          "internalType": "address",
          "name": "contractAddress",
          "type": "address"
        },
        {
          "internalType": "uint256",
          "name": "tokenId",
          "type": "uint256"
        },
        {
          "internalType": "address",
          "name": "assetToken",
          "type": "address"
        }
      ],
      "name": "baseParticleMass",
      "outputs": [
        {
          "internalType": "uint256",
          "name": "total",
          "type": "uint256"
        }
      ],
      "stateMutability": "view",
      "type": "function"
    },
    {
      "inputs": [
        {
          "internalType": "address",
          "name": "receiver",
          "type": "address"
        },
        {
          "internalType": "address",
          "name": "contractAddress",
          "type": "address"
        },
        {
          "internalType": "uint256",
          "name": "tokenId",
          "type": "uint256"
        },
        {
          "internalType": "address",
          "name": "nftTokenAddress",
          "type": "address"
        },
        {
          "internalType": "uint256",
          "name": "nftTokenId",
          "type": "uint256"
        },
        {
          "internalType": "uint256",
          "name": "nftTokenAmount",
          "type": "uint256"
        }
      ],
      "name": "breakCovalentBond",
      "outputs": [
        {
          "internalType": "bool",
          "name": "success",
          "type": "bool"
        }
      ],
      "stateMutability": "nonpayable",
      "type": "function"
    },
    {
      "inputs": [
        {
          "internalType": "address",
          "name": "contractAddress",
          "type": "address"
        },
        {
          "internalType": "uint256",
          "name": "tokenId",
          "type": "uint256"
        },
        {
          "internalType": "address",
          "name": "nftTokenAddress",
          "type": "address"
        },
        {
          "internalType": "uint256",
          "name": "nftTokenId",
          "type": "uint256"
        },
        {
          "internalType": "uint256",
          "name": "nftTokenAmount",
          "type": "uint256"
        }
      ],
      "name": "covalentBond",
      "outputs": [
        {
          "internalType": "bool",
          "name": "success",
          "type": "bool"
        }
      ],
      "stateMutability": "nonpayable",
      "type": "function"
    },
    {
      "inputs": [
        {
          "internalType": "address",
          "name": "contractAddress",
          "type": "address"
        },
        {
          "internalType": "uint256",
          "name": "tokenId",
          "type": "uint256"
        },
        {
          "internalType": "address",
          "name": "assetToken",
          "type": "address"
        }
      ],
      "name": "currentParticleCharge",
      "outputs": [
        {
          "internalType": "uint256",
          "name": "total",
          "type": "uint256"
        }
      ],
      "stateMutability": "view",
      "type": "function"
    },
    {
      "inputs": [
        {
          "internalType": "address",
          "name": "contractAddress",
          "type": "address"
        },
        {
          "internalType": "uint256",
          "name": "tokenId",
          "type": "uint256"
        },
        {
          "internalType": "address",
          "name": "nftContractAddress",
          "type": "address"
        },
        {
          "internalType": "uint256",
          "name": "nftTokenId",
          "type": "uint256"
        }
      ],
      "name": "currentParticleCovalentBonds",
      "outputs": [
        {
          "internalType": "uint256",
          "name": "total",
          "type": "uint256"
        }
      ],
      "stateMutability": "view",
      "type": "function"
    },
    {
      "inputs": [
        {
          "internalType": "address",
          "name": "contractAddress",
          "type": "address"
        },
        {
          "internalType": "uint256",
          "name": "tokenId",
          "type": "uint256"
        },
        {
          "internalType": "address",
          "name": "assetToken",
          "type": "address"
        }
      ],
      "name": "currentParticleKinetics",
      "outputs": [
        {
          "internalType": "uint256",
          "name": "total",
          "type": "uint256"
        }
      ],
      "stateMutability": "view",
      "type": "function"
    },
    {
      "inputs": [
        {
          "internalType": "address",
          "name": "contractAddress",
          "type": "address"
        },
        {
          "internalType": "uint256",
          "name": "tokenId",
          "type": "uint256"
        },
        {
          "internalType": "address",
          "name": "assetToken",
          "type": "address"
        },
        {
          "internalType": "uint256",
          "name": "assetAmount",
          "type": "uint256"
        }
      ],
      "name": "energizeParticle",
      "outputs": [
        {
          "internalType": "address",
          "name": "account",
          "type": "address"
        }
      ],
      "stateMutability": "nonpayable",
      "type": "function"
    },
    {
      "inputs": [
        {
          "internalType": "address",
          "name": "contractAddress",
          "type": "address"
        },
        {
          "internalType": "uint256",
          "name": "tokenId",
          "type": "uint256"
        },
        {
          "internalType": "address",
          "name": "assetToken",
          "type": "address"
        },
        {
          "internalType": "uint256",
          "name": "assetAmount",
          "type": "uint256"
        },
        {
          "internalType": "uint256",
          "name": "deadline",
          "type": "uint256"
        },
        {
          "internalType": "uint8",
          "name": "v",
          "type": "uint8"
        },
        {
          "internalType": "bytes32",
          "name": "r",
          "type": "bytes32"
        },
        {
          "internalType": "bytes32",
          "name": "s",
          "type": "bytes32"
        }
      ],
      "name": "energizeParticleWithPermit",
      "outputs": [
        {
          "internalType": "address",
          "name": "account",
          "type": "address"
        }
      ],
      "stateMutability": "nonpayable",
      "type": "function"
    },
    {
      "inputs": [
        {
          "internalType": "address",
          "name": "nftContract",
          "type": "address"
        }
      ],
      "name": "getAccountImplementation",
      "outputs": [
        {
          "internalType": "address",
          "name": "accountImplementation",
          "type": "address"
        }
      ],
      "stateMutability": "view",
      "type": "function"
    },
    {
      "inputs": [],
      "name": "getCurrentRegistry",
      "outputs": [
        {
          "internalType": "address",
          "name": "",
          "type": "address"
        }
      ],
      "stateMutability": "view",
      "type": "function"
    },
    {
      "inputs": [
        {
          "internalType": "address",
          "name": "nftContract",
          "type": "address"
        }
      ],
      "name": "getExecutionController",
      "outputs": [
        {
          "internalType": "address",
          "name": "executionController",
          "type": "address"
        }
      ],
      "stateMutability": "view",
      "type": "function"
    },
    {
      "inputs": [
        {
          "internalType": "uint256",
          "name": "registry",
          "type": "uint256"
        }
      ],
      "name": "getRegistry",
      "outputs": [
        {
          "internalType": "address",
          "name": "",
          "type": "address"
        }
      ],
      "stateMutability": "view",
      "type": "function"
    },
    {
      "inputs": [
        {
          "internalType": "address",
          "name": "contractAddress",
          "type": "address"
        },
        {
          "internalType": "uint256",
          "name": "tokenId",
          "type": "uint256"
        }
      ],
      "name": "getSmartAccountAddress",
      "outputs": [
        {
          "internalType": "address",
          "name": "",
          "type": "address"
        }
      ],
      "stateMutability": "view",
      "type": "function"
    },
    {
      "inputs": [],
      "name": "owner",
      "outputs": [
        {
          "internalType": "address",
          "name": "",
          "type": "address"
        }
      ],
      "stateMutability": "view",
      "type": "function"
    },
    {
      "inputs": [
        {
          "internalType": "address",
          "name": "receiver",
          "type": "address"
        },
        {
          "internalType": "address",
          "name": "contractAddress",
          "type": "address"
        },
        {
          "internalType": "uint256",
          "name": "tokenId",
          "type": "uint256"
        },
        {
          "internalType": "address",
          "name": "assetToken",
          "type": "address"
        }
      ],
      "name": "releaseParticle",
      "outputs": [
        {
          "internalType": "uint256",
          "name": "amount",
          "type": "uint256"
        }
      ],
      "stateMutability": "nonpayable",
      "type": "function"
    },
    {
      "inputs": [
        {
          "internalType": "address",
          "name": "receiver",
          "type": "address"
        },
        {
          "internalType": "address",
          "name": "contractAddress",
          "type": "address"
        },
        {
          "internalType": "uint256",
          "name": "tokenId",
          "type": "uint256"
        },
        {
          "internalType": "address",
          "name": "assetToken",
          "type": "address"
        },
        {
          "internalType": "uint256",
          "name": "assetAmount",
          "type": "uint256"
        }
      ],
      "name": "releaseParticleAmount",
      "outputs": [
        {
          "internalType": "uint256",
          "name": "",
          "type": "uint256"
        }
      ],
      "stateMutability": "nonpayable",
      "type": "function"
    },
    {
      "inputs": [],
      "name": "renounceOwnership",
      "outputs": [],
      "stateMutability": "nonpayable",
      "type": "function"
    },
    {
      "inputs": [
        {
          "internalType": "address",
          "name": "nftContract",
          "type": "address"
        },
        {
          "internalType": "address",
          "name": "accountImplementation",
          "type": "address"
        }
      ],
      "name": "setCustomAccountImplementation",
      "outputs": [],
      "stateMutability": "nonpayable",
      "type": "function"
    },
    {
      "inputs": [
        {
          "internalType": "address",
          "name": "nftContract",
          "type": "address"
        },
        {
          "internalType": "address",
          "name": "executionController",
          "type": "address"
        }
      ],
      "name": "setCustomExecutionController",
      "outputs": [],
      "stateMutability": "nonpayable",
      "type": "function"
    },
    {
      "inputs": [
        {
          "internalType": "address",
          "name": "accountImplementation",
          "type": "address"
        }
      ],
      "name": "setDefaultAccountImplementation",
      "outputs": [],
      "stateMutability": "nonpayable",
      "type": "function"
    },
    {
      "inputs": [
        {
          "internalType": "address",
          "name": "executionController",
          "type": "address"
        }
      ],
      "name": "setDefaultExecutionController",
      "outputs": [],
      "stateMutability": "nonpayable",
      "type": "function"
    },
    {
      "inputs": [
        {
          "internalType": "uint256",
          "name": "version",
          "type": "uint256"
        }
      ],
      "name": "setDefaultRegistryVersion",
      "outputs": [],
      "stateMutability": "nonpayable",
      "type": "function"
    },
    {
      "inputs": [
        {
          "internalType": "uint256",
          "name": "version",
          "type": "uint256"
        },
        {
          "internalType": "address",
          "name": "registry",
          "type": "address"
        }
      ],
      "name": "setRegistry",
      "outputs": [],
      "stateMutability": "nonpayable",
      "type": "function"
    },
    {
      "inputs": [
        {
          "internalType": "address",
          "name": "newOwner",
          "type": "address"
        }
      ],
      "name": "transferOwnership",
      "outputs": [],
      "stateMutability": "nonpayable",
      "type": "function"
    }
  ],
  "transactionHash": "0xacee776a9dbc75ca28868f9a8b17a57cafbdbef6954d67d3af5f6c6ce96ddeb2",
  "args": [
    "0x000000006551c19487814612e58FE06813775758",
    "0x5Dbf043A3175C7F90559295ec9a98ae66801a894"
  ],
  "numDeployments": 1,
  "solcInputHash": "ae55120569318d146191ea95aa78f5eb",
  "bytecode": "0x60806040523480156200001157600080fd5b5060405162002200380380620022008339810160408190526200003491620000fe565b6200003f3362000091565b60018055600754600090815260066020526040902080546001600160a01b039384166001600160a01b03199182161790915560058054929093169116179055654350552d563360d01b60085562000136565b600080546001600160a01b038381166001600160a01b0319831681178455604051919092169283917f8be0079c531659141344cd1fd0a4f28419497f9722a3daafe3b4186f6b6457e09190a35050565b80516001600160a01b0381168114620000f957600080fd5b919050565b600080604083850312156200011257600080fd5b6200011d83620000e1565b91506200012d60208401620000e1565b90509250929050565b6120ba80620001466000396000f3fe608060405234801561001057600080fd5b50600436106101585760003560e01c8063715018a6116100c3578063addf28f01161007c578063addf28f0146102f9578063ce786f571461030c578063d56fb4e01461031f578063e9f592ec1461033f578063f2fde38b14610352578063ff29c2e91461036557600080fd5b8063715018a6146102945780637c41e76b1461029c5780637f32faf3146102af578063882bd8cc146102c25780638da5cb5b146102d557806397d91744146102e657600080fd5b80633df070b1116101155780633df070b11461021057806343038e6e146102235780634e6421aa14610236578063577f435c146102595780635fd6592b1461026e578063607abc711461028157600080fd5b80630ab054111461015d5780631900f6ab14610183578063193c045e146101ae5780631e59562f146101d75780633b5a3afb146101ea5780633b94ce2f146101fd575b600080fd5b61017061016b366004611af4565b610378565b6040519081526020015b60405180910390f35b610196610191366004611b36565b61040c565b6040516001600160a01b03909116815260200161017a565b6101966101bc366004611b62565b6000908152600660205260409020546001600160a01b031690565b6101706101e5366004611b7b565b610424565b6101706101f8366004611bce565b61057d565b61019661020b366004611bce565b610616565b61017061021e366004611c16565b610783565b610170610231366004611af4565b610869565b610249610244366004611c71565b6108b3565b604051901515815260200161017a565b61026c610267366004611cd6565b610a7d565b005b61019661027c366004611cd6565b610aa7565b61026c61028f366004611cfa565b610ada565b61026c610b10565b61026c6102aa366004611b62565b610b24565b6101706102bd366004611af4565b610b31565b61026c6102d0366004611cfa565b610b7b565b6000546001600160a01b0316610196565b6101966102f4366004611cd6565b610bb1565b610249610307366004611d33565b610be2565b61026c61031a366004611d85565b610eec565b6007546000908152600660205260409020546001600160a01b0316610196565b61026c61034d366004611cd6565b610f22565b61026c610360366004611cd6565b610f4c565b610196610373366004611daa565b610fc5565b60008060006103878686611262565b915091508015610403576040516379ee54f760e01b81526001600160a01b0385811660048301528391908216906379ee54f7906024015b602060405180830381865afa1580156103db573d6000803e3d6000fd5b505050506040513d601f19601f820116820180604052508101906103ff9190611e2a565b9350505b50509392505050565b6000806104198484611262565b509150505b92915050565b6000838361043c6001600160a01b0383168233611381565b6104615760405162461bcd60e51b815260040161045890611e43565b60405180910390fd5b610469611428565b6000806104768888611262565b6040516370a0823160e01b81526001600160a01b038084166004830152929450909250908716906370a0823190602401602060405180830381865afa1580156104c3573d6000803e3d6000fd5b505050506040513d601f19601f820116820180604052508101906104e79190611e2a565b94506104fe6001600160a01b038716838b88611481565b801561056857604051631f459d9960e21b81526001600160a01b03831690637d16766490610535906000908a908a90600401611e7a565b600060405180830381600087803b15801561054f57600080fd5b505af1158015610563573d6000803e3d6000fd5b505050505b505061057360018055565b5050949350505050565b600080600061058c8787611262565b91509150801561057357604051630e0c00fd60e11b81526001600160a01b03868116600483015260248201869052839190821690631c1801fa90604401602060405180830381865afa1580156105e6573d6000803e3d6000fd5b505050506040513d601f19601f8201168201806040525081019061060a9190611e2a565b98975050505050505050565b6000610620611428565b60008061062d87876114e1565b90935083925090508161064b6001600160a01b038716338388611481565b6040805130602482015260001960448083019190915282518083039091018152606490910182526020810180516001600160e01b031663095ea7b360e01b1790529051635194544760e01b81526001600160a01b038616916351945447916106bd918a91600091908290600401611eeb565b6000604051808303816000875af11580156106dc573d6000803e3d6000fd5b505050506040513d6000823e601f3d908101601f191682016040526107049190810190611f3c565b50811561076f57604051631f459d9960e21b81526001600160a01b03821690637d1676649061073c906001908a908a90600401611e7a565b600060405180830381600087803b15801561075657600080fd5b505af115801561076a573d6000803e3d6000fd5b505050505b50505061077b60018055565b949350505050565b6000848461079b6001600160a01b0383168233611381565b6107b75760405162461bcd60e51b815260040161045890611e43565b6107bf611428565b6000806107cc8989611262565b90925090506107e66001600160a01b038816838c89611481565b801561085057604051631f459d9960e21b81526001600160a01b03831690637d1676649061081d906000908b908b90600401611e7a565b600060405180830381600087803b15801561083757600080fd5b505af115801561084b573d6000803e3d6000fd5b505050505b859450505061085e60018055565b505095945050505050565b60008060006108788686611262565b915091508015610403576040516307aaa34760e41b81526001600160a01b038581166004830152839190821690637aaa3470906024016103be565b600085856108cb6001600160a01b0383168233611381565b6108e75760405162461bcd60e51b815260040161045890611e43565b6108ef611428565b6000806108fc8a8a611262565b91509150610912886001600160a01b03166116e9565b1561098057604051637921219560e11b81526001600160a01b0389169063f242432a906109499085908f908e908c90600401611fde565b600060405180830381600087803b15801561096357600080fd5b505af1158015610977573d6000803e3d6000fd5b505050506109eb565b604051632142170760e11b81526001600160a01b0383811660048301528c81166024830152604482018990528916906342842e0e90606401600060405180830381600087803b1580156109d257600080fd5b505af11580156109e6573d6000803e3d6000fd5b505050505b8015610a6257604051634787125b60e11b8152600060048201526001600160a01b0389811660248301526044820189905260648201889052831690638f0e24b690608401600060405180830381600087803b158015610a4957600080fd5b505af1158015610a5d573d6000803e3d6000fd5b505050505b600194505050610a7160018055565b50509695505050505050565b610a8561175b565b600580546001600160a01b0319166001600160a01b0392909216919091179055565b6001600160a01b038082166000908152600260205260409020541680610ad557506003546001600160a01b03165b919050565b610ae261175b565b6001600160a01b03918216600090815260046020526040902080546001600160a01b03191691909216179055565b610b1861175b565b610b2260006117b5565b565b610b2c61175b565b600755565b6000806000610b408686611262565b91509150801561040357604051637abdd2d160e01b81526001600160a01b038581166004830152839190821690637abdd2d1906024016103be565b610b8361175b565b6001600160a01b03918216600090815260026020526040902080546001600160a01b03191691909216179055565b6001600160a01b038082166000908152600460205260409020541680610ad55750506005546001600160a01b031690565b6000610bec611428565b600080610bf988886114e1565b90925090508180610c126001600160a01b0389166116e9565b15610d3957604051637921219560e11b81526001600160a01b0389169063f242432a90610c4990339088908e908c90600401611fde565b600060405180830381600087803b158015610c6357600080fd5b505af1158015610c77573d6000803e3d6000fd5b505060408051306024820152600160448083019190915282518083039091018152606490910182526020810180516001600160e01b031663a22cb46560e01b1790529051635194544760e01b81526001600160a01b038516935063519454479250610cec918c91600091908290600401611eeb565b6000604051808303816000875af1158015610d0b573d6000803e3d6000fd5b505050506040513d6000823e601f3d908101601f19168201604052610d339190810190611f3c565b50610e5b565b604051632142170760e11b81523360048201526001600160a01b038581166024830152604482018990528916906342842e0e90606401600060405180830381600087803b158015610d8957600080fd5b505af1158015610d9d573d6000803e3d6000fd5b505060408051306024820152600160448083019190915282518083039091018152606490910182526020810180516001600160e01b031663a22cb46560e01b1790529051635194544760e01b81526001600160a01b038516935063519454479250610e12918c91600091908290600401611eeb565b6000604051808303816000875af1158015610e31573d6000803e3d6000fd5b505050506040513d6000823e601f3d908101601f19168201604052610e599190810190611f3c565b505b8215610ed257604051634787125b60e11b8152600160048201526001600160a01b0389811660248301526044820189905260648201889052831690638f0e24b690608401600060405180830381600087803b158015610eb957600080fd5b505af1158015610ecd573d6000803e3d6000fd5b505050505b6001945050505050610ee360018055565b95945050505050565b610ef461175b565b60009182526006602052604090912080546001600160a01b0319166001600160a01b03909216919091179055565b610f2a61175b565b600380546001600160a01b0319166001600160a01b0392909216919091179055565b610f5461175b565b6001600160a01b038116610fb95760405162461bcd60e51b815260206004820152602660248201527f4f776e61626c653a206e6577206f776e657220697320746865207a65726f206160448201526564647265737360d01b6064820152608401610458565b610fc2816117b5565b50565b6000610fcf611428565b6040516301ffc9a760e01b815263abcb12cf60e01b60048201526001600160a01b038816906301ffc9a790602401602060405180830381865afa15801561101a573d6000803e3d6000fd5b505050506040513d601f19601f8201168201806040525081019061103e9190612016565b6110815760405162461bcd60e51b81526020600482015260146024820152731c195c9b5a5d081b9bdd081cdd5c1c1bdc9d195960621b6044820152606401610458565b60008061108e8b8b6114e1565b60405163d505accf60e01b8152336004820152306024820152604481018b9052606481018a905260ff8916608482015260a4810188905260c48101879052919450849350915082906001600160a01b038b169063d505accf9060e401600060405180830381600087803b15801561110457600080fd5b505af1158015611118573d6000803e3d6000fd5b50611132925050506001600160a01b038b1633868c611481565b6040805130602482015260001960448083019190915282518083039091018152606490910182526020810180516001600160e01b031663095ea7b360e01b1790529051635194544760e01b81526001600160a01b038616916351945447916111a4918e91600091908290600401611eeb565b6000604051808303816000875af11580156111c3573d6000803e3d6000fd5b505050506040513d6000823e601f3d908101601f191682016040526111eb9190810190611f3c565b50811561125657604051631f459d9960e21b81526001600160a01b03821690637d16766490611223906001908e908e90600401611e7a565b600060405180830381600087803b15801561123d57600080fd5b505af1158015611251573d6000803e3d6000fd5b505050505b50505061060a60018055565b60075460009081526006602052604080822054600554600854925163246a002160e01b81526001600160a01b03918216600482015260248101939093524660448401528581166064840152608483018590528392911690819063246a00219060a401602060405180830381865afa1580156112e1573d6000803e3d6000fd5b505050506040513d601f19601f820116820180604052508101906113059190612038565b6040516301ffc9a760e01b8152634a83018b60e01b60048201529093506001600160a01b038416906301ffc9a790602401602060405180830381865afa158015611353573d6000803e3d6000fd5b505050506040513d601f19601f820116820180604052508101906113779190612016565b9150509250929050565b6000838161138f8286611805565b9050806001600160a01b0316846001600160a01b0316148061141e575060405163e985e9c560e01b81526001600160a01b038281166004830152858116602483015283169063e985e9c590604401602060405180830381865afa1580156113fa573d6000803e3d6000fd5b505050506040513d601f19601f8201168201806040525081019061141e9190612016565b9695505050505050565b60026001540361147a5760405162461bcd60e51b815260206004820152601f60248201527f5265656e7472616e637947756172643a207265656e7472616e742063616c6c006044820152606401610458565b6002600155565b604080516001600160a01b0385811660248301528416604482015260648082018490528251808303909101815260849091019091526020810180516001600160e01b03166323b872dd60e01b1790526114db9085906118e2565b50505050565b600754600090815260066020526040808220546005546008549251638a54c52f60e01b81526001600160a01b039182166004820152602481019390935246604484015285811660648401526084830185905283929116908190638a54c52f9060a4016020604051808303816000875af1158015611562573d6000803e3d6000fd5b505050506040513d601f19601f820116820180604052508101906115869190612038565b6040516301ffc9a760e01b8152634a83018b60e01b60048201529093506001600160a01b038416906301ffc9a790602401602060405180830381865afa1580156115d4573d6000803e3d6000fd5b505050506040513d601f19601f820116820180604052508101906115f89190612016565b9150828280156116695750806001600160a01b031663392e53cd6040518163ffffffff1660e01b81526004016020604051808303816000875af1158015611643573d6000803e3d6000fd5b505050506040513d601f19601f820116820180604052508101906116679190612016565b155b156116e057600061167987610aa7565b60405163485cc95560e01b81523060048201526001600160a01b0380831660248301529192509083169063485cc95590604401600060405180830381600087803b1580156116c657600080fd5b505af11580156116da573d6000803e3d6000fd5b50505050505b50509250929050565b6040516301ffc9a760e01b8152636cdb3d1360e11b60048201526000906001600160a01b038316906301ffc9a790602401602060405180830381865afa158015611737573d6000803e3d6000fd5b505050506040513d601f19601f8201168201806040525081019061041e9190612016565b6000546001600160a01b03163314610b225760405162461bcd60e51b815260206004820181905260248201527f4f776e61626c653a2063616c6c6572206973206e6f7420746865206f776e65726044820152606401610458565b600080546001600160a01b038381166001600160a01b0319831681178455604051919092169283917f8be0079c531659141344cd1fd0a4f28419497f9722a3daafe3b4186f6b6457e09190a35050565b6000806000846001600160a01b0316636352211e60e01b8560405160240161182f91815260200190565b60408051601f198184030181529181526020820180516001600160e01b03166001600160e01b031990941693909317909252905161186d9190612055565b6000604051808303816000865af19150503d80600081146118aa576040519150601f19603f3d011682016040523d82523d6000602084013e6118af565b606091505b509150915081156118d757808060200190518101906118ce9190612038565b9250505061041e565b60009250505061041e565b6000611937826040518060400160405280602081526020017f5361666545524332303a206c6f772d6c6576656c2063616c6c206661696c6564815250856001600160a01b03166119bc9092919063ffffffff16565b90508051600014806119585750808060200190518101906119589190612016565b6119b75760405162461bcd60e51b815260206004820152602a60248201527f5361666545524332303a204552433230206f7065726174696f6e20646964206e6044820152691bdd081cdd58d8d9595960b21b6064820152608401610458565b505050565b606061077b848460008585600080866001600160a01b031685876040516119e39190612055565b60006040518083038185875af1925050503d8060008114611a20576040519150601f19603f3d011682016040523d82523d6000602084013e611a25565b606091505b5091509150611a3687838387611a41565b979650505050505050565b60608315611ab0578251600003611aa9576001600160a01b0385163b611aa95760405162461bcd60e51b815260206004820152601d60248201527f416464726573733a2063616c6c20746f206e6f6e2d636f6e74726163740000006044820152606401610458565b508161077b565b61077b8383815115611ac55781518083602001fd5b8060405162461bcd60e51b81526004016104589190612071565b6001600160a01b0381168114610fc257600080fd5b600080600060608486031215611b0957600080fd5b8335611b1481611adf565b9250602084013591506040840135611b2b81611adf565b809150509250925092565b60008060408385031215611b4957600080fd5b8235611b5481611adf565b946020939093013593505050565b600060208284031215611b7457600080fd5b5035919050565b60008060008060808587031215611b9157600080fd5b8435611b9c81611adf565b93506020850135611bac81611adf565b9250604085013591506060850135611bc381611adf565b939692955090935050565b60008060008060808587031215611be457600080fd5b8435611bef81611adf565b9350602085013592506040850135611c0681611adf565b9396929550929360600135925050565b600080600080600060a08688031215611c2e57600080fd5b8535611c3981611adf565b94506020860135611c4981611adf565b9350604086013592506060860135611c6081611adf565b949793965091946080013592915050565b60008060008060008060c08789031215611c8a57600080fd5b8635611c9581611adf565b95506020870135611ca581611adf565b9450604087013593506060870135611cbc81611adf565b9598949750929560808101359460a0909101359350915050565b600060208284031215611ce857600080fd5b8135611cf381611adf565b9392505050565b60008060408385031215611d0d57600080fd5b8235611d1881611adf565b91506020830135611d2881611adf565b809150509250929050565b600080600080600060a08688031215611d4b57600080fd5b8535611d5681611adf565b9450602086013593506040860135611d6d81611adf565b94979396509394606081013594506080013592915050565b60008060408385031215611d9857600080fd5b823591506020830135611d2881611adf565b600080600080600080600080610100898b031215611dc757600080fd5b8835611dd281611adf565b9750602089013596506040890135611de981611adf565b9550606089013594506080890135935060a089013560ff81168114611e0d57600080fd5b979a969950949793969295929450505060c08201359160e0013590565b600060208284031215611e3c57600080fd5b5051919050565b60208082526019908201527f496e76616c6964206f776e6572206f72206f70657261746f7200000000000000604082015260600190565b92151583526001600160a01b03919091166020830152604082015260600190565b60005b83811015611eb6578181015183820152602001611e9e565b50506000910152565b60008151808452611ed7816020860160208601611e9b565b601f01601f19169290920160200192915050565b60018060a01b0385168152836020820152608060408201526000611f126080830185611ebf565b905060ff8316606083015295945050505050565b634e487b7160e01b600052604160045260246000fd5b600060208284031215611f4e57600080fd5b815167ffffffffffffffff80821115611f6657600080fd5b818401915084601f830112611f7a57600080fd5b815181811115611f8c57611f8c611f26565b604051601f8201601f19908116603f01168101908382118183101715611fb457611fb4611f26565b81604052828152876020848701011115611fcd57600080fd5b611a36836020830160208801611e9b565b6001600160a01b0394851681529290931660208301526040820152606081019190915260a06080820181905260009082015260c00190565b60006020828403121561202857600080fd5b81518015158114611cf357600080fd5b60006020828403121561204a57600080fd5b8151611cf381611adf565b60008251612067818460208701611e9b565b9190910192915050565b602081526000611cf36020830184611ebf56fea2646970667358221220f687e6472ae45837ea54f16a1643d3eaa67f011402ff868903b2428ba12fec6064736f6c63430008110033",
  "devdoc": {
    "kind": "dev",
    "methods": {
      "baseParticleMass(address,uint256,address)": {
        "params": {
          "assetToken": "The Address of the Asset Token to check",
          "contractAddress": "The Address to the Contract of the Token",
          "tokenId": "The ID of the Token"
        },
        "returns": {
          "total": "              The Amount of underlying Assets held within the Token"
        }
      },
      "breakCovalentBond(address,address,uint256,address,uint256,uint256)": {
        "params": {
          "contractAddress": "The Address to the Contract of the Token to Energize",
          "nftTokenAddress": "The Address of the NFT Token being deposited",
          "nftTokenAmount": "The amount of Tokens to Withdraw (ERC1155-specific)",
          "nftTokenId": "The ID of the NFT Token being deposited",
          "receiver": "The Address to Receive the Released Asset Tokens",
          "tokenId": "The ID of the Token to Energize"
        },
        "returns": {
          "success": "            True if the operation succeeded (for backwards-compat)"
        }
      },
      "covalentBond(address,uint256,address,uint256,uint256)": {
        "params": {
          "contractAddress": "The Address to the Contract of the Token to Energize",
          "nftTokenAddress": "The Address of the NFT Token being deposited",
          "nftTokenAmount": "The amount of Tokens to Deposit (ERC1155-specific)",
          "nftTokenId": "The ID of the NFT Token being deposited",
          "tokenId": "The ID of the Token to Energize"
        },
        "returns": {
          "success": "            True if the operation succeeded (for backwards-compat)"
        }
      },
      "currentParticleCharge(address,uint256,address)": {
        "params": {
          "assetToken": "The Address of the Asset Token to check",
          "contractAddress": "The Address to the Contract of the Token",
          "tokenId": "The ID of the Token"
        },
        "returns": {
          "total": "              The amount of interest the Token has generated (in Asset Token)"
        }
      },
      "currentParticleCovalentBonds(address,uint256,address,uint256)": {
        "params": {
          "contractAddress": "The Address to the Contract of the Token",
          "tokenId": "The ID of the Token (for ERC1155)"
        },
        "returns": {
          "total": "          The total amount of ERC721 tokens that are held within the Particle"
        }
      },
      "energizeParticle(address,uint256,address,uint256)": {
        "params": {
          "assetAmount": "The Amount of Asset Token to Energize the Token with",
          "assetToken": "The Address of the Asset Token being used",
          "contractAddress": "The Address to the Contract of the Token to Energize",
          "tokenId": "The ID of the Token to Energize"
        },
        "returns": {
          "account": "            The address of the SmartAccount associated with the NFT"
        }
      },
      "energizeParticleWithPermit(address,uint256,address,uint256,uint256,uint8,bytes32,bytes32)": {
        "params": {
          "assetAmount": "The Amount of Asset Token to Energize the Token with",
          "assetToken": "The Address of the Asset Token being used",
          "contractAddress": "The Address to the Contract of the Token to Energize",
          "tokenId": "The ID of the Token to Energize"
        },
        "returns": {
          "account": "            The address of the SmartAccount associated with the NFT"
        }
      },
      "getAccountImplementation(address)": {
        "details": "..."
      },
      "getCurrentRegistry()": {
        "details": "..."
      },
      "getExecutionController(address)": {
        "details": "..."
      },
      "getRegistry(uint256)": {
        "details": "..."
      },
      "owner()": {
        "details": "Returns the address of the current owner."
      },
      "renounceOwnership()": {
        "details": "Leaves the contract without owner. It will not be possible to call `onlyOwner` functions. Can only be called by the current owner. NOTE: Renouncing ownership will leave the contract without an owner, thereby disabling any functionality that is only available to the owner."
      },
      "setCustomAccountImplementation(address,address)": {
        "details": "..."
      },
      "setCustomExecutionController(address,address)": {
        "details": "..."
      },
      "setDefaultAccountImplementation(address)": {
        "details": "..."
      },
      "setDefaultExecutionController(address)": {
        "details": "..."
      },
      "setDefaultRegistryVersion(uint256)": {
        "details": "..."
      },
      "setRegistry(uint256,address)": {
        "details": "..."
      },
      "transferOwnership(address)": {
        "details": "Transfers ownership of the contract to a new account (`newOwner`). Can only be called by the current owner."
      }
    },
    "version": 1
  },
  "userdoc": {
    "kind": "user",
    "methods": {
      "baseParticleMass(address,uint256,address)": {
        "notice": "Gets the Amount of Asset Tokens that have been Deposited into the Particle representing the Mass of the Particle."
      },
      "breakCovalentBond(address,address,uint256,address,uint256,uint256)": {
        "notice": "Release NFT Assets from the Particle"
      },
      "covalentBond(address,uint256,address,uint256,uint256)": {
        "notice": "Deposit other NFT Assets into the Particle    Must be called by the account providing the Asset    Account must Approve THIS contract as Operator of Asset    Emits \"ERC6551AccountCreated\" event when a new wallet is created"
      },
      "currentParticleCharge(address,uint256,address)": {
        "notice": "Gets the amount of Interest that the Particle has generated representing the Charge of the Particle"
      },
      "currentParticleCovalentBonds(address,uint256,address,uint256)": {
        "notice": "Gets the total amount of ERC721 Tokens that the Particle holds"
      },
      "energizeParticle(address,uint256,address,uint256)": {
        "notice": "Fund Particle with Asset Token    Must be called by the account providing the Asset    Account must Approve THIS contract as Operator of Asset    Emits \"ERC6551AccountCreated\" event when a new wallet is created"
      },
      "energizeParticleWithPermit(address,uint256,address,uint256,uint256,uint8,bytes32,bytes32)": {
        "notice": "Fund Particle with Asset Token    Must be called by the account providing the Asset    Account must Approve THIS contract as Operator of Asset    Emits \"ERC6551AccountCreated\" event when a new wallet is created"
      }
    },
    "version": 1
  },
  "storageLayout": {
    "storage": [
      {
        "astId": 7,
        "contract": "contracts/ChargedParticles.sol:ChargedParticles",
        "label": "_owner",
        "offset": 0,
        "slot": "0",
        "type": "t_address"
      },
      {
        "astId": 137,
        "contract": "contracts/ChargedParticles.sol:ChargedParticles",
        "label": "_status",
        "offset": 0,
        "slot": "1",
        "type": "t_uint256"
      },
      {
        "astId": 1915,
        "contract": "contracts/ChargedParticles.sol:ChargedParticles",
        "label": "executionControllers",
        "offset": 0,
        "slot": "2",
        "type": "t_mapping(t_address,t_address)"
      },
      {
        "astId": 1917,
        "contract": "contracts/ChargedParticles.sol:ChargedParticles",
        "label": "defaultExecutionController",
        "offset": 0,
        "slot": "3",
        "type": "t_address"
      },
      {
        "astId": 1921,
        "contract": "contracts/ChargedParticles.sol:ChargedParticles",
        "label": "accountImplementations",
        "offset": 0,
        "slot": "4",
        "type": "t_mapping(t_address,t_address)"
      },
      {
        "astId": 1923,
        "contract": "contracts/ChargedParticles.sol:ChargedParticles",
        "label": "defaultAccountImplementation",
        "offset": 0,
        "slot": "5",
        "type": "t_address"
      },
      {
        "astId": 1927,
        "contract": "contracts/ChargedParticles.sol:ChargedParticles",
        "label": "erc6551registry",
        "offset": 0,
        "slot": "6",
        "type": "t_mapping(t_uint256,t_address)"
      },
      {
        "astId": 1929,
        "contract": "contracts/ChargedParticles.sol:ChargedParticles",
        "label": "defaultRegistry",
        "offset": 0,
        "slot": "7",
        "type": "t_uint256"
      },
      {
        "astId": 1931,
        "contract": "contracts/ChargedParticles.sol:ChargedParticles",
        "label": "defaultSalt",
        "offset": 0,
        "slot": "8",
        "type": "t_bytes32"
      }
    ],
    "types": {
      "t_address": {
        "encoding": "inplace",
        "label": "address",
        "numberOfBytes": "20"
      },
      "t_bytes32": {
        "encoding": "inplace",
        "label": "bytes32",
        "numberOfBytes": "32"
      },
      "t_mapping(t_address,t_address)": {
        "encoding": "mapping",
        "key": "t_address",
        "label": "mapping(address => address)",
        "numberOfBytes": "32",
        "value": "t_address"
      },
      "t_mapping(t_uint256,t_address)": {
        "encoding": "mapping",
        "key": "t_uint256",
        "label": "mapping(uint256 => address)",
        "numberOfBytes": "32",
        "value": "t_address"
      },
      "t_uint256": {
        "encoding": "inplace",
        "label": "uint256",
        "numberOfBytes": "32"
      }
    }
  }
}